:040000000C9430002C
:100004000C9400000C9400000C9400000C9400006C
:100014000C9400000C9400000C9400000C9400005C
:100024000C9400000C9400000C9400000C9400004C
:100034000C9400000C9400000C9400000C9400003C
:100044000C9400000C9400000C9400000C9400002C
:10005400050000000400040054000000F894EE279A
:10006400ECBBF1E0FBBFEBBFE5BF8DE0A2E0BB273B
:10007400ED938A95E9F780E098E0A0E6ED93019787
:10008400E9F7E8E5F0E085919591009761F0A59195
:10009400B59105901590BF01F00105900D9201975F
:1000A400E1F7FB01F0CFEFE5EDBFE8E0EEBFC0E61E
:1000B400D2E00C946600E5E01CD0E6E01AD0EAE059
:1000C40018D0E9E016D00895E0E0EABBEFEFEBBB0F
:1000D400E1BBC89903C0461457040CF408C0AEE150
:1000E400B0E00E948000E7DFF30131963F01F1CFD9
:1000F400FFCFE2BBA2E3B0E00C948000109639F08D
:1001040080ED97E00197F1F7A8951197C9F7089545
:00000001FF
