:060000000C9451000C9469
:1000060000000C9400000C9400000C9400000C946A
:1000160000000C9400000C9400000C9400000C945A
:1000260000000C9400000C9400000C9400000C944A
:1000360000000C9400000C9400000C9400000C943A
:1000460000000C9400000C9400000C9400000C942A
:1000560000000C9400000C9400000C9400000C941A
:1000660000000C9400000C9400000C9400000C940A
:1000760000000C9400000C9400000C9400000C94FA
:1000860000000C9400000A000000010302060400B0
:1000960004008C000400000590000000F894EE2790
:1000A600ECBBF1E0F5BFE5BFE0936C008DE0A2E0AC
:1000B600BB27ED938A95E9F780E090E1A0E0B1E0F7
:1000C600ED930197E9F7E4E9F0E0859195910097C2
:1000D60061F0A591B59105901590BF01F0010590CD
:1000E6000D920197E1F7FB01F0CF8BBFEFEFEDBF6C
:1000F600E0E1EEBFC0E0D5E00C948100EFE3E4BBA5
:10010600E0E0E5BBEABBE5E5EBBBC89905C02AD054
:10011600F2013A962F0126D0CA9905C023D0F201E2
:100126003A972F011FD0042C052819F4E2E3F0E0DA
:100136002F016624772466247724E4E0F0E06E1627
:100146007F0674F4A0E0B5E0A60DB71DEC91E06360
:10015600E5BBD2010E94B900F30131963F01EDCF14
:10016600D4CFFFCFA5E0B0E00C94B900109639F0DB
:1001760080ED97E00197F1F7A8951197C9F70895D3
:00000001FF
