:100000000C945E000C9400000C9400000C94000012
:100010000C9400000C9400000C9400000C94000060
:100020000C9400000C9400000C9400000C94000050
:100030000C9400000C9400000C9400000C94000040
:100040000C9400000C9400000C9400000C94000030
:100050000C94000053746F70007475726E696E6753
:10006000204C454654006C6566743A2000726967FE
:1000700074683A2000464F5257415244006C6566FE
:100080007420262072696768743A20007475726E55
:10009000696E672052494748540080C001002D4EC8
:1000A000414E00494E460000050060025400020027
:1000B00085029A00010089029C000000F894EE2756
:1000C000ECBBF1E0FBBFEBBFE5BF8DE0A2E0BB27DF
:1000D000ED938A95E9F780E098E0A0E6ED9301972B
:1000E000E9F7E8EAF0E085919591009761F0A59134
:1000F000B59105901590BF01F00105900D92019703
:10010000E1F7FB01F0CFEFE5EDBFE8E0EEBFC0E6C1
:10011000D2E00C94DF00E0E0E2BBFBD0A0E6B2E06E
:1001200019D1E0E0F0E0FBBDEABDF9BDE8BD0895FE
:100130000E942802A9E5B0E00E9431020E94380224
:10014000E9E02EC00E942802A5E7B0E00E9431023B
:10015000ADE7B0E00ED1E881F981FA93EA93A5E624
:10016000B2E00E94FA01E0E0EA93A2E0C5D0A5E681
:10017000B2E0F0D0EAE0E2BBE881F981FBBDEABD84
:10018000F9BDE8BDA4E6B0E00E947602C0C00E94BE
:100190002802ACE8B0E00E9431020E943802E6E09A
:1001A000E2BBE881F981FBBDEABDEA81FB81F9BDD3
:1001B000E8BDAAE0B0E00E94760224960895E0E04F
:1001C000EBBBEFE0EABBE0E0E2BBEFE0E1BBE3EA80
:1001D000EFBDE3E0EEBDE0E0EDBDECBDEBBDEABDA3
:1001E000E7BDE6BDE9BDE8BDE9BFE8BFA4E1D4D005
:1001F000E0E0EA93A1E080D0EFE15E2EE3B35E227F
:10020000552009F488DFE4E0E51519F4A2E3B0E035
:1002100099DFEEE0E51519F4A2E3B0E093DFE0E149
:10022000E51529F40E945D02A2E3B0E081DFE8E178
:10023000E51529F40E945D02A8E2B0E079DFE8E06C
:10024000E51529F40E945D02AEE1B0E071DFECE05B
:10025000E51529F40E945D02A9E1B0E069DFECE157
:10026000E51529F40E945D02AEE1B0E061DFE1E056
:10027000E51521F4E2E3F0E00E946202E3E0E51517
:1002800021F4E8E2F0E00E946202E7E0E51521F4E3
:10029000EEE1F0E00E946202E6E0E51521F4E9E11A
:1002A000F0E00E946202E2E0E51521F4EEE1F0E008
:1002B0000E946202A1CFFFCFAA93EBB3EF70AE2FE3
:1002C000E881E07FEA2BEBBB8DE08A95F1F7DA9AC3
:1002D0008DE08A95F1F7DA988DE08A95F1F788C07C
:1002E000AA93A881E9DFE881E295E883A881E4DFA9
:1002F00085E88A95F1F77CC0AA93E881F0E0EB5796
:10030000FD4FE081A981AE0FEBDF49807880229616
:100310000895A2E00E946802ACE0E2DFA1E00E9442
:100320006802E0E07E2E4E2E0895AA93A881AA309E
:1003300011F0461448F0E0E0EA937394A72DDCDF57
:10034000A881AA3009F454C04394D89AA881C8DF80
:10035000D8984EC0BA93AA931A93A981BA81ED9105
:10036000A983BA831E2FE03019F0A12FDEDFF5CF6D
:1003700010C0BA93AA931A93E981FA813196E9835E
:10038000FA833197E4911E2FE03019F0A12FCDDFD1
:10039000F3CF188123960895AA93EAB3E06FEABBDE
:1003A000D29AD09AD19ADA98D898D9986880E88168
:1003B000E058E0938702E881E054E0938802A4E1EA
:1003C000B0E00E9476020E946E020E946E020E94BD
:1003D0006E02A0E271DF88EC90E00197F1F7A8E2ED
:1003E0007FDFA4E07DDFA5E87BDFA6E079DF91DF9A
:1003F00021960895BA93AA93A991B991E991F99197
:1004000030962AF4E095F09531966DE26D93E8947C
:1004100080E197E20DD088EE93E00AD084E6992738
:1004200007D08AE005D06E2F10D066276C93089510
:100430006627E817F90720F06395E81BF90BC9F761
:10044000662311F416F008956894605D6D93089525
:10045000BA93AA930E948901E0E0EA93A0E00C9489
:100460007C010E94B901E0E0EA93A1E00C947C01D8
:10047000A6E6B0E00E94B901EA81FB81FA93EA9313
:10048000A5E6B2E00E94FA01A5E6B2E00E94AA0148
:10049000E0E0EA93A2E00E947C01ADE6B0E00E94B9
:1004A000B901E881F981FA93EA93A5E6B2E00E94E6
:1004B000FA01A5E6B2E00C94AA01E4E1F0E0FA93B7
:1004C000EA930895FA93EA93A4E1B0E00C94C7008C
:1004D0000E947001A3E0B0E00C947602A0E30E94B9
:1004E0005C0188EC90E00197F1F70895109639F0DF
:1004F00080ED97E00197F1F7A8951197C9F7089556
:00000001FF
