:020000000C945E
:1000020046000C9400000C9400000C9400000C9428
:1000120000000C9400000C9400000C9400000C945E
:1000220000000C9400000C9400000C9400000C944E
:1000320000000C9400000C9400000C9400000C943E
:1000420000000C9400000C9400000C9400000C942E
:1000520000000C9400000C9400000C9400000C941E
:1000620000000C9400000C9400000C9400000C940E
:1000720000000C9400000C9400000C9400000C94FE
:1000820000000C9400000C940000F894EE27ECBBE6
:10009200F1E0F5BFE5BFE0936C008DE0A2E0BB2785
:1000A200ED938A95E9F780E090E1A0E0B1E0ED936D
:1000B2000197E9F78BBFEFEFEDBFE0E1EEBFC0E0E4
:1000C200D5E00C9464002497E1E0E883E3E0E9835F
:1000D200E2E0EA83E6E0EB83E0E0EABBE1E0EBBBEF
:1000E200E7E0E4BBE0E0E5BBC89B0EC000E010E047
:1000F2000830E0E01E0744F413D0A5E0B0E00E940F
:1001020097000F5F1F4FF4CFC89908C007E010E0B7
:10011200112322F005D001501040FACFE5CFFFCFD6
:10012200DE01A00FB11FEC91E5BB0895109639F0E6
:1001320080ED97E00197F1F7A8951197C9F7089517
:00000001FF
