:100000000C942A000C9434000C9434000C943400AA
:100010000C9434000C9434000C9434000C9436008E
:100020000C9434000C9434000C9434000C94340080
:100030000C9434000C9434000C9434000C94340070
:100040000C9434000C9434000C9434000C94340060
:100050000C94340011241FBECFE5D8E0DEBFCDBF25
:100060000E9474000C9484000C9400001F920F9264
:100070000FB60F9211248F939F93EF93FF9385B345
:1000800090E1892785BBAC9AE3B3EF70EA3008F5BD
:10009000F0E0E35BFF4F0C947E0057005A005C00D9
:1000A0005E0060006200640066006800720081E02B
:1000B00082BB0FC08FE4FCCF82E1FACF86E0F8CF9D
:1000C0008CE4F6CF84E2F4CF80E2F2CF8FE0F0CF81
:1000D00012BAFF91EF919F918F910F900FBE0F90E9
:1000E0001F9018958CE0E4CF889AAC9A1FBC8EE1E3
:1000F0008EBD83E294EF9BBD8ABDFFCFEE0FFF1F45
:0C0100000590F491E02D0994F894FFCFD5
:00000001FF
