:100000000C944A000C9454000C9454000C9454002A
:100010000C9454000C9454000C9454000C94540010
:100020000C9454000C9454000C9454000C94540000
:100030000C9456000C9454000C9454000C945400EE
:100040000C9454000C9454000C9454000C945400E0
:100050000C9454000C9454000C9454000C945400D0
:100060000C9454000C9454000C9454000C945400C0
:100070000C9454000C9454000C9454000C945400B0
:100080000C9454000C9454000C9454000C945400A0
:100090000C94540011241FBECFEFD8E0DEBFCDBFBB
:1000A0000E9494000C94A8000C9400001F920F92E0
:1000B0000FB60F9211248F939F93EF93FF9388B104
:1000C00090E1892788B9449AE6B1EF70EA3008F5E3
:1000D000F0E0E359FF4F0C94A20077007A007C0017
:1000E0007E0080008200840086008800920081E00B
:1000F0008BB90FC08FE4FCCF82E1FACF86E0F8CF56
:100100008CE4F6CF84E2F4CF80E2F2CF8FE0F0CF40
:100110001BB8FF91EF919F918F910F900FBE0F90A1
:100120001F9018958CE0E4CF509A449A109280006A
:100130008EE18093810083E294EF90938900809315
:100140008800FFCFEE0FFF1F0590F491E02D09947A
:04015000F894FFCF51
:00000001FF
