:100000000C9443000C9400000C9400000C9400002D
:100010000C9400000C9400000C9400000C94000060
:100020000C9400000C9400000C9400000C94000050
:100030000C9400000C9400000C9400000C94000040
:100040000C9400000C9400000C9400000C94000030
:100050000C9400001027E80364000A00010000105F
:10006000000110000100543D25332E31660043008D
:1000700054686973206973204F4B000080C00200F0
:1000800060017C000000F894EE27ECBBF1E0FBBFC0
:10009000EBBFE5BF8DE0A2E0BB27ED938A95E9F7C2
:1000A00080E094E0A0E6ED930197E9F7EEE7F0E059
:1000B00085919591009761F0A591B5910590159066
:1000C000BF01F00105900D920197E1F7FB01F0CF20
:1000D000EFE5EDBFE4E0EEBFC0E6D1E00C947D00BB
:1000E000AA93E881E7B983E08A95F1F7369A349BC1
:1000F000FECF349AE4B1F5B1EBC0649700E010E0B4
:10010000E0E0EABBEBBBEFEFE4BBE0E0E5BBE7B967
:10011000E2E8E6B9E0E0E0BFA0E1AFD06BD0A0E05C
:10012000DFDF8F010E9420040E949D03DF01CB01CD
:10013000ECEBF4E763E070E40E94CB03E88BF98B0F
:100140006A8B7B8BFE01FA93EA93E6E6F0E0FA9382
:10015000EA93EC89FD896E897F890E942D0484E0F1
:100160000E94DE022896E0E0EA93A0E036D0DE01AD
:1001700062D0E7E0EA93A0E030D0AEE6B0E06AD02B
:10018000E2E0EA93A1E029D0A0E7B0E063D0A4EFD9
:10019000B1E00E946403C3CFFFCFAA93E5B3EF7031
:1001A000AE2FE881E07FEA2BE5BB82E08A95F1F78C
:1001B000AA9A82E08A95F1F7AA9882E08A95F1F7E7
:1001C00087C0AA93A881E9DFE881E295E883A88146
:1001D000E4DF81E18A95F1F77BC0AA93E881F0E042
:1001E000E05AFE4FE081A981AE0FEBDF59804880D5
:1001F00022960895A2E00E942B03ACE0E2DFA1E08A
:100200000E942B03E0E04E2E5E2E0895AA93A88153
:10021000AA3011F0571448F0E0E0EA934394A42D7B
:10022000DCDFA881AA3009F453C05394A89AA881AE
:10023000C8DFA8984DC0BA93AA931A93A981BA812E
:10024000ED91A983BA831E2FE03019F0A12FDEDFD4
:10025000F5CF10C0BA93AA931A93E981FA81319627
:10026000E983FA833197E4911E2FE03019F0A12F32
:10027000CDDFF3CF188123960895AA93E4B3E06FFE
:10028000E4BBA29AA09AA19AAA98A898A998788063
:10029000E881E058E0936201E881E054E093630173
:1002A000A4E1B0E00E9464030E9431030E94310384
:1002B0000E943103A0E271DF81E28A95F1F7A8E2A2
:1002C00080DFA4E07EDFA5E87CDFA6E07ADF92DFB6
:1002D00021960895BA93AA931A930A93AA81BB818F
:1002E00012960E942504309759F1AA81BB81149679
:1002F0000E9425048F01309761F00230E0E01E0774
:1003000098F0F80131978F01AA81BB811496ED9383
:10031000FC93AA81BB811296ED91FD913196FE93DB
:10032000EE933197AC81A083AA81BB810E94250402
:10033000FF232AF0ED91FD913196FE93EE9306C0D6
:10034000AA81BB81EFEFFFEFED93FC931981088148
:1003500025960895BA93AA9326970E94320410E036
:10036000AC85BD85E0E0F0E0ED93FC93EA89FB8984
:100370003196EA8BFB8B3197E4912E2FE03009F414
:1003800015C1E12FE03039F4253211F411E002C03B
:100390000E9438030AC1E130A9F4253219F40E9401
:1003A000380302C112E040E000E02D3211F401E018
:1003B000FCC02B3211F44BE2F8C0203211F440E2C1
:1003C000F4C002C0E23039F450E013E0203311F4FD
:1003D0000068EBC003C0E33009F0E7C0203310F041
:1003E0002A3308F007C0AAE05A9F502DE22FE053AD
:1003F0005E0FDBC0E22FE33649F40E943F03E88939
:10040000F989A481AA930E944503CEC0E33741F441
:100410000E943F030E944B030E9412031E2F0AC03A
:10042000E03761F40E943F030E944B030E941E03C9
:100430001E2F086002600F7730E034C0E43611F000
:10044000E93611F4046002C0E53731F4E4E5F0E088
:10045000EE83FF8315E00CC0E83511F4086003C09B
:10046000E83709F0A1C0EEE5F0E0EE83FF8314E089
:1004700002FF14C00E943F030E945503AB85AA23CC
:100480003AF4EA85FB850E941404EA87FB874DE273
:10049000403011F01F5F01C00B7F04C00E943F037A
:1004A0000E94550300FD11C0151778F407FF08C01E
:1004B00002FF04C00B7F242F115001C020E301C0B4
:1004C00020E20E9438035150EFCF312F01FF17C0B7
:1004D0003030A1F003FF06C0EE81FF812591EE834D
:1004E000FF8305C0AE81BF812D91AE83BF830E9483
:1004F0003803503009F051503150EACF4BC020E35F
:10050000EE81FF810E942904E887F987EE81FF814F
:100510003296EE83FF83E885F985AA85BB85AE1701
:10052000BF0750F02F5FA885B985EA85FB85EA1BD8
:10053000FB0BEA87FB87EFCF2A3328F003FF02C0CB
:10054000295F01C0295D04FD1AC0213320F4A8856C
:10055000B985119709F409C0531710F000FF01C0C5
:1005600013C020E207FF0BC020E3006102FF07C0B9
:100570000B7F4A930E944503503009F051500E946E
:100580003803503009F051503150A885B985129781
:1005900008F0B5CF00FF08C0503031F05150E0E214
:1005A000EA930E944503F8CF10E0E0CEAC85BD850C
:1005B0000E9425040E94390464960895FF92F82E43
:1005C00026970E9434040E945D03309719F4EFEFE0
:1005D000FFEF23C0DE0116960E9410048D010E94D9
:1005E0005D03EE83FF83E0E0E887E987DE011A968A
:1005F0000E9410040E942504FA93EA931A930A9326
:10060000EAE6F1E0FA93EA93DE011A96A3DE9F018F
:10061000AE81BF81E0E0EC93F9010E943B042A9691
:10062000FF900895BA93AA93A991B991EE27FF2755
:100630006D91662311F03196FBCF0895BA93AA937A
:10064000AA27BB27E991F9910590002011F0119696
:10065000FBCFFD0108950E94E100A3E0B0E00C94FF
:100660006403A0E30E94CD0081E28A95F1F708952A
:100670002A93AD85BE85EF85F88909950895E889A7
:10068000F9893497E88BF98B0895AD85BE85EF85A0
:10069000F88909950895A889B98914960E942504B6
:1006A000EE83FF83AE81BF810895A889B98914962E
:1006B0000E942504EA87FB870895DE011C960E94AC
:1006C00010040E9425040895109639F08AEF90E0F6
:1006D0000197F1F7A8951197C9F70895552342F4AA
:1006E000503811F4E0FF04C03196691F791F6BF098
:1006F00050E8572711F45F933CC05F3F31F0660F1D
:10070000000C57956795752F08955F9300200AF0A8
:100710003CC035C050E8192E1522880F991F952727
:10072000550F879550E8072E0522660F771F75270E
:10073000550F67950895689401C0E894309760401C
:100740007040B1F0002426F0772312F4009470D0AA
:10075000172E7EE1112032F07A95EE0FFF1F661FF3
:10076000111CF9CFEF2FF62F612D5F93C1DF5F9141
:100770000895EE27FF27662777275F910895EFEF0B
:10078000FFEF6FE77FEF5F910895EFEFFFEF6FE708
:100790007FE75F9108955F93BDDF703821F41120EA
:1007A0000AF4EDCFF2CF903809F4E3CF0124089496
:1007B000970B1BF4D4F30020F3CF792F1F932F93C3
:1007C0003F934F931124112722273327442755277E
:1007D00090E2AE17BF078607410730F0AE1BBF0B94
:1007E000860B410B089401C08894551F221F331FAC
:1007F000111CAA1FBB1F881F441F9A9551F7F901AE
:10080000612D4F913F912F911F91662332F0550F2B
:10081000EE1FFF1F661F7A9543F260DF5F91089518
:100820000024AF0DB01D0895F195E195F0400895B5
:10083000F09560957095E195FF4F6F4F7F4F08954C
:100840006F2F660F660B762F0895ED91FC9111972F
:1008500008950590F491E02D08957A936A93FA93A0
:10086000EA9308955A934A933A932A931A930A93D0
:1008700008955D814C813B812A8119810881089509
:00000001FF
