:100000000C9468000C9400000C9400000C94000008
:100010000C9400000C9400000C9400000C94000060
:100020000C9400000C9400000C9400000C94000050
:100030000C9400000C9400000C9400000C94000040
:100040000C9400000C9400000C9400000C94000030
:100050000C940000000000000000FFFFFEFDFBF715
:100060003738392F3435362A3132332D00303D2B95
:100070003132333456414C4944212077656C636FEB
:100080006D650057524F4E47212100456E746572D1
:100090002050617373776F72643A000080C008006B
:1000A00006005400040087025C0010008B02600010
:1000B00004009B0270000F006002740008006F02D1
:1000C0008300100077028B000200A4029C00000055
:1000D000F894EE27ECBBF1E0FBBFEBBFE5BF8DE092
:1000E000A2E0BB27ED938A95E9F780E098E0A0E6CF
:1000F000ED930197E9F7EEE9F0E08591959100978E
:1001000061F0A591B59105901590BF01F0010590A2
:100110000D920197E1F7FB01F0CFEFE5EDBFE8E0CD
:10012000EEBFC0E6D2E00C947B012AD1EFE9F2E009
:10013000FA93EA93E0E0EA93A4E0B0E00E942E0292
:1001400044240895EFEFFFEF6F016620D9F50E9478
:100150003E025524E3E0E515A0F10E944202849995
:1001600004C00E943E02CC24DD24859905C00E9473
:100170003E02E1E0F0E06F01869905C00E943E0278
:10018000E2E0F0E06F01879905C00E943E02E3E0E3
:10019000F0E06F01EFEFFFEFEC15FD0581F0E3E01C
:1001A000E51521F400240C140D0409F002C0BDDF94
:1001B00003C00E94490206C0EFEFFFEF6F015394A6
:1001C000C9CFC3CFE091A302F0E0F09708951A934E
:1001D0000A9300E010E0B6DF5F010A151B058CF4FE
:1001E000E5E0E5BB0E943E02E6E0E5BB0E943E0280
:1001F000EAE0E5BB0E943E02E9E0E5BB0E943E0268
:10020000ECCFE1E06E2E91DF099119910895E1E0C4
:100210007E2E5524E3E0E51578F0E52DF0E0E55677
:10022000FD4FA081E52DF0E0E156FD4FE081EA179A
:1002300009F077245394EECFE1E0E71559F4A0D00C
:10024000A0E6B2E0CBD0E1E0F0E04F01C09A6DDF74
:10025000BEDF0BC095D0AFE6B2E0C0D0C79AA8EC25
:10026000B0E00E946602C79860DF08955524E3E07D
:10027000E51508F43FC00E944202849904C00E9420
:100280003E02CC24DD24859905C00E943E02E1E0B7
:10029000F0E06F01869905C00E943E02E2E0F0E0C6
:1002A0006F01879905C00E943E02E3E0F0E06F0114
:1002B000EFEFFFEFEC15FD05D9F0E3E0E51521F4D4
:1002C00000240C140D0409F002C02FDF0EC00E94A0
:1002D0004902E42DF0E0E156FD4FA091A302A08376
:1002E0004394E4E0E41509F492DFEFEFFFEF6F01D0
:1002F0005394BDCF0895E1E8E7BBEFE0E1BBE0EF49
:10030000E2BBA0E17CD0A7E7B2E068D0E0E0EA93EE
:10031000A1E025D0662011F4A9DFFCCFFFCFAA937E
:10032000EBB3EF70AE2FE881E07FEA2BEBBB8DE003
:100330008A95F1F7DA9A8DE08A95F1F7DA988DE0EF
:100340008A95F1F789C0AA93A881E9DFE881E2954F
:10035000E883A881E4DF85E88A95F1F77DC0AA9358
:10036000E881F0E0EC55FD4FE081A981AE0FEBDFB5
:10037000E981E093A802E881E093A902229608951A
:10038000A2E00E945802ACE0DEDFA1E00E94580229
:10039000E0E0E093A902E093A8020895AA93A8815F
:1003A000AA3031F0E091AA02A091A802AE1760F045
:1003B000E0E0EA93A091A902AF5FA093A902CFDF8A
:1003C000A881AA3009F448C0E091A802EF5FE09349
:1003D000A802D89AA881B7DFD8983EC0BA93AA934A
:1003E0001A93A981BA81ED91A983BA831E2FE030B7
:1003F00019F0A12FD3DFF5CF188123960895AA9382
:10040000EAB3E06FEABBD29AD09AD19ADA98D89838
:10041000D998E881E093AA02E058E093A602E88127
:10042000E054E093A702A4E1B0E00E9466020E94BB
:100430005E020E945E020E945E02A0E270DF88EC13
:1004400090E00197F1F7A8E27EDFA4E07CDFA5E869
:100450007ADFA6E078DF94DF21960895BA93AA9315
:10046000B981A881109631F0FC81EB816A8161939A
:100470001197E9F7EB81FC8125960895A2E3B0E09E
:100480000C946602E52DF0E0E957FD4FE081E2BBF8
:100490000895A52DE4E0EA9FF001EC0DFD1DE55760
:1004A000FD4FE081E093A302A091A3020C94CE0142
:1004B0000E94A301A3E0B0E00C946602A0E30E94B6
:1004C0008F0188EC90E00197F1F70895109639F0CC
:1004D00080ED97E00197F1F7A8951197C9F7089576
:00000001FF
