:0A0000000C9439000C9400000C94DD
:10000A0000000C9400000C9400000C9400000C9466
:10001A0000000C9400000C9400000C9400000C9456
:10002A0000000C9400000C9400000C9400000C9446
:10003A0000000C9400000C9400000C9400000C9436
:10004A0000000C9400000C940000310032003300D0
:10005A00340035003600370038003900300080C0DF
:10006A000200600168000000F894EE27ECBBF1E0A2
:10007A00FBBFEBBFE5BF8DE0A2E0BB27ED938A95FE
:10008A00E9F780E094E0A0E6ED930197E9F7EAE664
:10009A00F0E085919591009761F0A591B591059051
:1000AA001590BF01F00105900D920197E1F7FB0150
:1000BA00F0CFEFE5EDBFE4E0EEBFC0E6D1E00C948F
:1000CA00FE00DB98DC9ADD9ADE9AC89903C0E3E069
:1000DA00F0E00895C99903C0E2E0F0E00895CA99F2
:1000EA0003C0E1E0F0E00895DB9ADC98DD9ADE9A3D
:1000FA00C89903C0E6E0F0E00895C99903C0E5E0B5
:10010A00F0E00895CA9903C0E4E0F0E00895DB9AAC
:10011A00DC9ADD98DE9AC89903C0E9E0F0E0089518
:10012A00C99903C0E8E0F0E00895CA9903C0E7E07E
:10013A00F0E00895DB9ADC9ADD9ADE98C99903C04B
:10014A00E0E0F0E00895CA9903C0EAE0F0E008951B
:10015A00ECE0F0E00895BA93AA93A881B9811197C7
:10016A0019F4A4E5B0E0AAD0A881B981129719F4CC
:10017A00A6E5B0E0A3D0A881B981139719F4A8E540
:10018A00B0E09CD0A881B981149719F4AAE5B0E02F
:10019A0095D0A881B981159719F4ACE5B0E08ED055
:1001AA00A881B981169719F4AEE5B0E087D0A88185
:1001BA00B981179719F4A0E6B0E080D0A881B98177
:1001CA00189719F4A2E6B0E079D0A881B9811997F5
:1001DA0019F4A4E6B0E072D0E881F981309719F4F5
:1001EA00A6E6B0E06BD0A881B9811A9709F447D086
:1001FA0044C0E8E7EABBE7E0EBBBEFEFE4BBE0E0D3
:10020A00E5BBA0E16ED05DDF8F01ECE0F0E0E01726
:10021A00F107C9F3D8019FDFAEE5B1E00E94AB0157
:10022A00F2CFFFCFAA93EBB3EF70AE2FE881E07F56
:10023A00EA2BEBBB82E08A95F1F7DA9A82E08A959B
:10024A00F1F7DA9882E08A95F1F773C0AA93A88148
:10025A00E9DFE881E295E883A881E4DF81E18A9514
:10026A00F1F767C0AA93E881F0E0E05AFE4FE08117
:10027A00A981AE0FEBDF5980488022960895A2E04B
:10028A005AD0ACE0E3DFA1E056D0E0E04E2E5E2E7D
:10029A000895AA93A881AA3011F0571448F0E0E013
:1002AA00EA934394A42DDEDFA881AA3009F441C061
:1002BA005394D89AA881CADFD8983BC0BA93AA9314
:1002CA001A93E981FA813196E983FA833197E491A5
:1002DA001E2FE03019F0A12FDCDFF3CF188123960F
:1002EA000895AA93EAB3E06FEABBD29AD09AD19A58
:1002FA00DA98D898D9987880E881E058E093620132
:10030A00E881E054E0936301A4E1B0E00E94AB010C
:10031A0017D016D015D0A0E285DF81E28A95F1F7D1
:10032A00A8E294DFA4E092DFA5E890DFA6E08EDFE2
:10033A00A6DF219608958ADFA3E0B0E00C94AB0112
:10034A00A0E370DF81E28A95F1F70895109639F0FB
:10035A008AEF90E00197F1F7A8951197C9F70895E8
:00000001FF
