:0A0000000C9446000C9400000C94D0
:10000A0000000C9400000C9400000C9400000C9466
:10001A0000000C9400000C9400000C9400000C9456
:10002A0000000C9400000C9400000C9400000C9446
:10003A0000000C9400000C9400000C9400000C9436
:10004A0000000C9400000C9400000C9400000C9426
:10005A0000000C9400000C9400000C9400000C9416
:10006A0000000C9400000C9400000C9400000C9406
:10007A0000000C9400000C9400000C9400000C94F6
:10008A000000F894EE27ECBBF1E0F5BFE5BFE09382
:10009A006C008DE0A2E0BB27ED938A95E9F780E03A
:1000AA0090E1A0E0B1E0ED930197E9F78BBFEFEFA4
:1000BA00EDBFE0E1EEBFC0E0D5E00C946400249708
:1000CA00E1E0E883E3E0E983E2E0EA83E6E0EB8368
:1000DA00E0E0EABBE1E0EBBBE3E0E4BBE0E0E5BB88
:1000EA00C89B12C000E010E00430E0E01E0764F490
:1000FA00DE01A00FB11FEC91E5BBA5E0B0E00E94C4
:10010A008B000F5F1F4FF0CFEBCFFFCF109639F068
:10011A0080ED97E00197F1F7A8951197C9F708952F
:00000001FF
